:1000000018308A0000280000FF00030E8301A100C1
:100010000A08A0008A010408A2007708A300780853
:10002000A4007908A5007A08A60003170D08031399
:10003000A70003170F080313A80003170C080313E6
:10004000A90003170E080313AA00831383128B1E43
:100050002B280B194C28220884002308F7002408B9
:10006000F8002508F9002608FA00270803178D0074
:100070000313280803178F000313290803178C00A4
:1000800003132A0803178E00031320088A00210E89
:100090008300FF0E7F0E09008A150A120028E8016E
:1000A000EB01EE015F30E600E900EC00E700EA005A
:1000B000ED000800F701F80183164C0803104D18F5
:1000C000F707F70CF80CCD18F707F70CF80C4D19DB
:1000D000F707F70CF80CCD19F707F70CF80C4D1AC9
:1000E000F707F70CF80CCD1AF707F70CF80C4D1BB7
:1000F000F707F70CF80CCD1BF707F70CF80C831279
:1001000008008316CA01C8010A30C900C7014508A2
:100110004604031D8E280030F80060294A08CA0AE8
:10012000450784008313461883170008CB004B084B
:100130002D3C031DA7280130C8004A08CA0A4507FC
:1001400084008313461883170008CB00B4284B089B
:100150002B3C031DB4284A08CA0A450784008313B0
:10016000461883170008CB004B082F3C031856296C
:100170004B08393C031C56294B08303C031DE02832
:100180004A08450784008313461883170008783C03
:100190000319D4284A084507840083134618831797
:1001A0000008583C031DE0281030C900CA0A4A085C
:1001B000CA0A450784008313461883170008CB003A
:1001C00049080A3C031D04294B082F3C0318032946
:1001D0004B08393C031C03290A30CC004708CD00EA
:1001E00083125A2078088316CC0030304B024C071B
:1001F000C7004A08CA0A45078400831346188317B4
:100200000008CB00E42856294908103C031D562954
:100210004B08603C031813294B087A3C031C132934
:100220004B08DF3914294B08CB004B082F3C03182F
:100230001D294B08393C031825294B08403C03185D
:1002400056294B08463C031C56294B082F3C0318E3
:1002500036294B08393C031C3629470ECC00F030B8
:10026000CC0530304B024C07C7003F29470ECC006D
:10027000F030CC0541304B020A3E4C07C7004A081B
:10028000CA0A450784008313461883170008CB0069
:100290004B08603C031853294B087A3C031C532934
:1002A0004B08DF3954294B08CB001529480B5E2930
:1002B00049080A3C031D5E29C709C70A4708F80018
:1002C000831208006F08013C031C6D2966306F071C
:1002D000840083135808800080296F08033C031CA6
:1002E000792902306F02693E840083135808800028
:1002F000802904306F026C3E84008313580880000C
:10030000EF0AE801EB01EE016F08063C0318A5298E
:100310008316C6016630C500831281207808F0007C
:100320008316C6016930C500831281207808F10068
:100330008316C6016C30C500831281207808F20054
:10034000EF010130F800A729A7290030F8000800C4
:100350000830F80000008711B211320883168700B8
:100360000000CD0D83120712031CBC29321632087F
:1003700083168700C0298312321232088316870041
:1003800000008312B2153208831687008312871D7E
:10039000C729F80BAA2900008711B2113208831669
:1003A000870000008312321632088316870000008F
:1003B00000008312B2153208831687008312871D4E
:1003C000DF29F8010000071A78148711B2113208EA
:1003D00083168700831207123212320883168700B1
:1003E0008312080008308316CA007708CB008312F6
:1003F000321632088316870000008312B2153208C5
:10040000831687008312871D032A071A0314071E09
:100410000310F80D0000B211320883168700831212
:1004200087118316CA0BF7298312321632088316F6
:10043000870000008312071283164B080319252A30
:100440008312321232088316870000008312B2151D
:100450003208831687008312871D2C2A000087111B
:10046000B21132088316870000008312071232127D
:1004700032088316870083120800CC30840083136F
:1004800000080319512A0130F800F701F70B462A3A
:10049000F80B452A4A30F700F70B4C2A4F2A800BFD
:1004A000432A080083164C08CD00CE014D08093CB4
:1004B00003185F2A0A30CD021030CE07622A4D0899
:1004C000CE07632A562A4E08F800831208000B1341
:1004D0008B138B1B682A8316CB133F30C9058312FD
:1004E000321632088316870000008312B2153208D4
:1004F0008316870000008312071232123208831617
:100500008700000083128711B2113208831687001A
:10051000D030CD008312A8218316CD018312A821EB
:1005200083164B08CC008312522278088316CC0025
:10053000CD008312A82183164A08CC0083125222D0
:1005400078088316CC00CD008312A82183164908B1
:10055000CC008312522278088316CC00CD0083127F
:10056000A82183164808CC008312522278088316EB
:10057000CC00CD008312A82183164508CC0083123D
:10058000522278088316CC00CD008312A82183164E
:100590004608CC008312522278088316CC00CD0086
:1005A0008312A82183164708CC00831252227808B0
:1005B0008316CC00CD008312A82132123208831694
:1005C000870000008312B215320883168700831259
:1005D000871DE82A0000EC2A000032163208831634
:1005E00087000000C03083128B0464308316CC0077
:1005F00083123D2208000C102010C837F230A020D2
:10060000F43A61363A000A102010A0123019641D25
:1006100025183232BA12301964000C102010C43080
:10062000F430A020F43A61363A008C216F37E6347A
:10063000E73AF2307210C837F2303A000A14AA14BE
:10064000A0226E3AF23072008C216F37E634E73A1E
:10065000F2307210C430F4303A000A14AA14A02206
:100660006E3AF23072008C20EC30F236E5393A0006
:100670000A14AA14A0226E3AF23072000C22E93356
:10068000693A65106110E837F2303A000C22E9331C
:10069000693A65106110E430F4303A000C10A02083
:1006A0006432A020EC30F236E5393A000A14AA147C
:1006B000A0226E3AF23072008C22F3316F36E830AD
:1006C000A0372032E9303A008A1BA016A0296131F8
:1006D00061326F008A18A0162022EF366937E7379B
:1006E00000010A19A016A029E5337537E43000018E
:1006F0008A19A016202A6539E33000010A1AA016CB
:10070000A028F530723A61008A1AA016A028F534A4
:100710006E3A61000A1BA016A029653CF430000166
:100720000C246F396110E437A020EC30F236651DDF
:1007300000010C22EF366937E737A01F00018C2932
:10074000E5337537E430A01F00010C2A6539E3302A
:10075000A01F00018C28F530723A61103F008C28F0
:10076000F5346E3A61103F008C29653CF430A01FCF
:1007700000018C29613161326F103F000A14B114FD
:10078000A029E9362014B214CE306F008C206C3AC8
:10079000653961326F10E3376D05D33AE332F339CF
:1007A000EF1000000C102010A020EC30F236651085
:1007B0000A102010A020E3346F3761326F102E171B
:1007C0002E000C102010A0227338653965100A1015
:1007D0002010A03A6D10F037F5316F102E172E0053
:1007E0008316081088100811831288108316881049
:1007F000081688160817881783120815831608111B
:10080000000083120814831608100000C2010816A5
:1008100000308312081A01308316C2048816003093
:100820008312881A0130F7000310F70D770883163A
:10083000C204081700308312081B0130F700F70DBF
:10084000F70DFC30F70577088316C20488170030CF
:100850008312881B0130F700F70DF70DF70DF83004
:10086000F70577088316C2044208F8007808C1002B
:1008700083120810831608100000831208148316D0
:1008800008100000C201081600308312081A013057
:100890008316C204881600308312881A0130F700CC
:1008A0000310F70D77088316C2040817003083126F
:1008B000081B0130F700F70DF70DFC30F70577083E
:1008C0008316C204881700308312881B0130F7009A
:1008D000F70DF70DF70DF830F70577088316C2040A
:1008E0004208F8007808C000831208108316081028
:1008F0000812881208138813410EF700F030F7052C
:1009000077084004F8007808C000C01BF82BBE0828
:10091000031D8E2C83128810902C8316831288144A
:100920008316881000008312081183160811000036
:1009300083120810831608103F0EC0000F30C00548
:100940004008C1004118A82C83120812AA2C831653
:100950008312081683160812C118B22C831288124B
:10096000B42C831683128816831688124119BC2C66
:1009700083120813BE2C83168312081783160813DC
:10098000C119C62C83128813C82C831683128817AA
:100990008316881300008312081483160810D02CC5
:1009A00083120810831608103F080F39C000400852
:1009B000C1004118DF2C83120812E12C8316831228
:1009C000081683160812C118E92C83128812EB2C22
:1009D000831683128816831688124119F32C83120A
:1009E0000813F52C83168312081783160813C119F0
:1009F000FD2C83128813FF2C83168312881783160D
:100A0000881300008312081483160810072D831220
:100A10000810831608108312080028308316B100CE
:100A20000C30B2000130B3000630B400831208105D
:100A300083160810831288108316881083120811F9
:100A400083160811081288120813881308108810DA
:100A500008118312AB018B1BAB178B130F3083165E
:100A6000CC0083123D22AB1B8B1701308316B000E4
:100A70003008033C031C7F2D0330C1004118442D76
:100A800083120812462D8316831208168316081245
:100A9000C1184E2D83128812502D8316831288168A
:100AA000831688124119582D831208135A2D831664
:100AB0008312081783160813C119622D8312881335
:100AC000642D8316831288178316881300008312FF
:100AD0000814831608106C2D831208108316081052
:100AE0008312AB018B1BAB178B1305308316CC0025
:100AF00083123D22AB1B8B178316B00A382D0230B0
:100B0000C1004118872D83120812892D8316831284
:100B1000081683160812C118912D83128812932D7E
:100B20008316831288168316881241199B2D83120F
:100B300008139D2D83168312081783160813C119F5
:100B4000A52D83128813A72D831683128817831669
:100B5000881300008312081483160810AF2D831227
:100B60000810831608108312AB018B1BAB178B1375
:100B700005308316CC0083123D22AB1B8B178316E6
:100B8000B0013008033C031CD32DB1303007840082
:100B900083130008B500BE013508BF008312F0239F
:100BA0008316B00AC12D83128A150A166A28831685
:100BB0003908073A83120319E72D0B3A0319FE2D62
:100BC000063A0319102E023A0319282E2F2E01304F
:100BD0008316BA00BB003B0BEE2DF12D4030BC005C
:100BE000F22DBC0101303A02BC073C088038BD0040
:100BF000BE013D08BF008312F023362E8316BE01CE
:100C00000130BF008312F023AB018B1BAB178B139A
:100C100002308316CC0083123D22AB1B8B17362E7D
:100C200001308316BA000230BB003B0B182E1B2E7E
:100C30004030BC001C2EBC0101303A02BC073C080D
:100C40008038BD00BE013D08BF008312F023362E60
:100C50008316BE011030BF008312F023362E013000
:100C60008316BE003908BF008312F02308000B086A
:100C70008316B00083128B13831603178C170C1482
:100C8000000000000313B01F482E83128B17831639
:100C9000831203170C087F390319A92E8316031337
:100CA000B000831203170D0883160313B1008312DB
:100CB00003170F0883160313B2003008B90083121C
:100CC000D72583163108831203178D00831603136B
:100CD0003208831203178F0003130B088316B30027
:100CE00083128B13831603178C170C14000000005B
:100CF0000313B31F7E2E83128B17831683120317E1
:100D00000C0D0E0D7F390319A92E83160313B000A5
:100D1000831203170D0883160313B1008312031700
:100D20000F0883160313B2003008B9008312D725C9
:100D300083163108831203178D00831603133208BC
:100D4000831203178F008D0A03198F0A0313372E9E
:100D500003170313080020308316341E3030B5000B
:100D60003308F700F71FBC2EF709F70A7708B3001E
:100D70002D30B500B417341478083308B900643046
:100D8000BA003A08F80139020318C92E3908F700E9
:100D9000D52EF7010830BB00B90DF70D3A087702E0
:100DA0000318F700F80DBB0BCC2E7708B3003030DA
:100DB0007807B6003308B9000A30BA003A08F801DB
:100DC00039020318E62E3908F700F22EF701083031
:100DD000BB00B90DF70D3A0877020318F700F80DBC
:100DE000BB0BE92E30307707B80030307807B700FA
:100DF0003508F700303036020319022FB414B41B43
:100E00003415162F3419162F3508B600B4180D2FC7
:100E1000303037020319102F3414B41BB414162FBA
:100E2000031D3414031D162F3608B70034191D2F67
:100E3000B418222F3418272F2C2F3508B90083120D
:100E4000D72583163608B9008312D72583163708AD
:100E5000B9008312D72583163808B9008312D72525
:100E60000800153003178D0003308F000313372659
:100E70001E3003178D0003308F00031337268A15A9
:100E80000A16D52A243003178D0003308F00031370
:100E900037262D3003178D0003308F0003133726BC
:100EA0008A150A16D52A333003178D0003308F00B8
:100EB00003133726383003178D0003308F000313D8
:100EC00037268A150A16D52A3E3003178D000330BF
:100ED0008F00031337260A308316B9008312D725F3
:100EE000663084008313800803198F2F8316B101A5
:100EF0000408B0003110831B31140008B9008312BC
:100F0000D725831630088400831331188317840A89
:100F1000031D8D2F8312850A83168312732F3A3097
:100F20008316B9008312D7256930840083138008A3
:100F30000319B32F8316B1010408B0003110831BCD
:100F400031140008B9008312D725831630088400B5
:100F5000831331188317840A031DB12F8312850A66
:100F600083168312972F3A308316B9008312D72540
:100F70006C308400831380080319D72F8316B101C6
:100F80000408B0003110831B31140008B90083122B
:100F9000D725831630088400831331188317840AF9
:100FA000031DD52F8312850A83168312BB2F8A1542
:100FB0000A16D52AC63003178D0003308F0003139D
:100FC000372604308316B0008312AB018B1BAB179E
:100FD0008B13AF308316CC0083123D22AB1B8B17D3
:100FE0008316B00BE42F8312D9018A150A16D52A6D
:10100000FB0A7B08013C031CFB01FB08031D872D29
:10101000F60A7608023C031CF60176080319172825
:10102000013A03193728033A0319572876288316FB
:1010300005108312051483168510831285108316FC
:10104000051183120511851D28283130D800362856
:10105000051E2D283430D8003628851E322837301A
:10106000D8003628091C36282A30D800762883165E
:1010700085108312851483160510831205108316BC
:10108000051183120511851D48283230D8005628D5
:10109000051E4D283530D8005628851E5228383078
:1010A000D8005628091C56283030D80076288316D8
:1010B000051183120515831685108312851083167A
:1010C000051083120510851D68283330D800762856
:1010D000051E6D283630D8007628851E72283930D6
:1010E000D8007628091C76282330D80085197E2858
:1010F000051A7E28851A7E28091C872DD908031910
:101100009428590B842894285908023C03199428E0
:101110005908033C031994285908043C03199428DE
:101120005908053C031DA6285808343C0319D90367
:101130005808363C0319D90AD91BA2285908053C7E
:10114000031CD901D91FA6280530D9005908063C2F
:101150000319BE285908073C0319BE285908083C42
:101160000319BE2859080A3C0319BE2859080B3C2C
:101170000319BE2859080C3C031DC7285808233CF6
:10118000031DC728D9018A114F208A15EF0159087C
:10119000023C031DD22858082A3C031DD1280630E2
:1011A000D900872D5908033C031DDD2858082A3C27
:1011B000031DDC280730D900872D5908053C031D85
:1011C000E82858082A3C031DE7280A30D900872D53
:1011D0005908043C031DF92858082A3C031DF82827
:1011E000F51BF8287508003C0318F8280C30D900C6
:1011F000872D5908063C031D082A8A1162218A1589
:10120000F8080319072A0B138B138B1B04293216BA
:1012100032088316870000008312B2153208831645
:1012200087000000831207123212320883168700EB
:10123000000083128711B211320883168700D03064
:10124000CD008A118312A8218A1503308316CD00A0
:101250008A118312A8218A15321632088316870054
:1012600000008312B2153208831687000000831233
:10127000871D3829071232123208831687000000B2
:1012800083128711B211320883168700D130CD0046
:101290008A118312A8218A150130F7008A11F221E0
:1012A0008A1578087F398316C5004508CA004A08A0
:1012B000CB000310CB0C7830CB054B0CF700F70CB0
:1012C0003F30F70577084B07CC004A080F394C0729
:1012D000F80078088312E0000130F7008A11F2214B
:1012E0008A1578083F398316C5004508CA004A08A0
:1012F000CB000310CB0C7830CB054B0CF700F70C70
:101300003F30F70577084B07CC004A080F394C07E8
:10131000F80078088312DD000130F7008A11F2210D
:101320008A1578081F398316C5004508CA004A087F
:10133000CB000310CB0C7830CB054B0CF700F70C2F
:101340003F30F70577084B07CC004A080F394C07A8
:10135000F80078088312DE00F7018A11F2218A155D
:1013600078088316C5004508CA004A08CB00031058
:10137000CB0C7830CB054B0CF700F70C3F30F70562
:1013800077084B07CC004A080F394C07F80078085B
:101390008312DF00321232088316870000008312A6
:1013A000B2153208831687008312871DD5290000E5
:1013B000D929000032163208831687000000C03099
:1013C00083128B0464308316CC008A1183123D2271
:1013D0008A155D088316C50083125E088316C60051
:1013E00083125F088316C700831260088316C80043
:1013F0007008C9007108CA007208CB008A118312F4
:1014000067228A158A114F208A150930D900872D45
:101410005908073C031D152A8A1162218A15F8080C
:101420000319142A0830D900872D5908083C031DD8
:10143000222B58082A3C031D212A0130F800382AA3
:10144000362A5808233C0319362A5808E200E301DB
:101450008316C6016230C5008A11831281208A1565
:101460007808E0006008063C031CE0010030F8004A
:10147000F8080319212B0B138B138B1B3C2A3216F4
:1014800032088316870000008312B21532088316D3
:101490008700000083120712321232088316870079
:1014A000000083128711B211320883168700D030F2
:1014B000CD008A118312A8218A158316CD018A11C5
:1014C0008312A8218A15321632088316870000007D
:1014D0008312B21532088316870000008312871D1D
:1014E0006F2A071232123208831687000000831217
:1014F0008711B211320883168700D130CD008A11CE
:101500008312A8218A150130F7008A11F2218A1569
:1015100078087F398316C5004508CA004A08CB0001
:101520000310CB0C7830CB054B0CF700F70C3F3099
:10153000F70577084B07CC004A080F394C07F8002D
:1015400078088312DC000130F7008A11F2218A1535
:1015500078087F398316C5004508CA004A08CB00C1
:101560000310CB0C7830CB054B0CF700F70C3F3059
:10157000F70577084B07CC004A080F394C07F800ED
:1015800078088312DB00F7018A11F2218A157808A6
:101590003F398316C5004508CA004A08CB0003102E
:1015A000CB0C7830CB054B0CF700F70C3F30F70530
:1015B00077084B07CC004A080F394C07F800780829
:1015C0008312DA0032123208831687000000831279
:1015D000B2153208831687008312871DED2A00009A
:1015E000F12A000032163208831687000000C0304E
:1015F00083128B0464308316CC008A1183123D223F
:101600008A1570088316C5007108C6007208C700E5
:10161000831260088316C80083125A088316C90013
:1016200083125B088316CA0083125C088316CB0002
:101630008A11831267228A158A114F208A15093070
:10164000D900872D59080A3C031D2F2B8A116221CE
:101650008A15F80803192E2B0B30D900872D59084D
:101660000B3C031D5C2C5808313C031D3E2BA03065
:1016700073078400831301308000F30A5808323C5A
:10168000031D482BA0307307840083138001F30AE5
:10169000F31B5B2C7308063C03185B2CF401F41B52
:1016A000552B74083B3C031C552C74088316CC0046
:1016B0000330CD008A1183125A208A15033078072F
:1016C0008316C5004508831203178D0083168C13FB
:1016D0000C1483120C08FF3C031D522C7408831653
:1016E0000313CC000330CD008A1183125A208A15CF
:1016F000033078078316C50083120B08F7008B139D
:1017000083164508831203178D0070088C0083161A
:101710008C130C1555308D00AA308D008C148C184C
:101720008F2B0C117708831203138B047408831614
:10173000CC000330CD008A1183125A208A15033061
:101740007807013E8316C50083120B08F7008B1340
:1017500083164508831203178D0071088C008316C9
:101760008C130C1555308D00AA308D008C148C18FC
:10177000B72B0C117708831203138B04740883169C
:10178000CC000330CD008A1183125A208A15033011
:101790007807023E8316C500C701A030C600C80105
:1017A000460884008313471883170008C8040130D3
:1017B000460784008313471883170310000DC804DD
:1017C000023046078400831347188317000DF70083
:1017D000F70DFC30F7057708C8040330460784008E
:1017E000831347188317000DF700F70DF70DF83036
:1017F000F7057708C80404304607840083134718A8
:101800008317000EF700F030F7057708C80405309D
:1018100046078400831347188317000EF700F70D5F
:10182000E030F7057708C8040630460784008313C4
:1018300047188317000EF700F70DF70DC030F705B6
:101840007708C804073046078400831347188317B6
:10185000F7010018F7177708C8044808F800780857
:10186000C60083120B08F7008B13831645088312FA
:1018700003178D00831603134608831203178C0089
:1018800083168C130C1555308D00AA308D008C14E6
:101890008C18482C0C117708831203138B04F50A5B
:1018A000552C0317F40A03134F2B8A114F208A1566
:1018B0000930D900F301872D59080C3C031D872DF1
:1018C0005808343C0319F4035808363C0319F40A49
:1018D000F41F6D2C01307502F4007508803AF70092
:1018E0007408803A77020319762C031CF401580817
:1018F000303C031D872D74088316CC000330CD00C7
:101900008A1183125A208A15033078078316C4007F
:1019100003304407C5004508831203178D00831662
:101920008C130C1483120C08FF3C03192D2D03306B
:10193000831603134407C5004508831203178D005F
:1019400083168C130C1483120C0883160313C50022
:1019500083120B08F7008B138316440883120317B6
:101960008D00831603134508831203178C0083161A
:101970008C130C1555308D00AA308D008C148C18EA
:10198000BF2C0C117708831203138B0401308316CC
:101990004407C50004304407C600460883120317F5
:1019A0008D0083168C130C1483120C0883160313FA
:1019B000C60083120B08F7008B13831645088312A9
:1019C00003178D00831603134608831203178C0038
:1019D00083168C130C1555308D00AA308D008C1495
:1019E0008C18F02C0C117708831203138B0402302F
:1019F00083164407C50005304407C6004608831215
:101A000003178D0083168C130C1483120C08831695
:101A10000313C60083120B08F7008B1383164508C7
:101A2000831203178D0083160313460883120317CE
:101A30008C0083168C130C1555308D00AA308D0048
:101A40008C148C18212D0C117708831203138B042E
:101A50008316C40A882C8312031703130B08F7009C
:101A60008B1383164408831203178D00FF308C00FC
:101A700083168C130C1555308D00AA308D008C14F4
:101A80008C18402D0C117708831203138B0401303E
:101A900083164407C50083120B08F7008B138316C7
:101AA0004508831203178D00FF308C0083168C13BA
:101AB0000C1555308D00AA308D008C148C185E2DBD
:101AC0000C117708831203138B040230831644072A
:101AD000C50083120B08F7008B1383164508831289
:101AE00003178D00FF308C0083168C130C155530B6
:101AF0008D00AA308D008C148C187C2D0C11770869
:101B0000831203138B04F503F4010930D9000B1180
:101B10008A110A122B28FB3003178D0002308F0028
:101B20008A11031337268A150B138B138B1B952DE4
:101B3000321632088316870000008312B21532086D
:101B400083168700000083120712321232088316B0
:101B50008700000083128711B211320883168700B4
:101B6000D030CD008A118312A8218A158316CD01A9
:101B70008A118312A8218A1532163208831687002B
:101B800000008312B215320883168700000083120A
:101B9000871DC82D071232123208831687000000F5
:101BA00083128711B211320883168700D130CD001D
:101BB0008A118312A8218A150130F7008A11F221B7
:101BC0008A1578087F398316C5004508CA004A0877
:101BD000CB000310CB0C7830CB054B0CF700F70C87
:101BE0003F30F70577084B07CC004A080F394C0700
:101BF000F80078088312DC000130F7008A11F22126
:101C00008A1578087F398316C5004508CA004A0836
:101C1000CB000310CB0C7830CB054B0CF700F70C46
:101C20003F30F70577084B07CC004A080F394C07BF
:101C3000F80078088312DB00F7018A11F2218A1577
:101C400078083F398316C5004508CA004A08CB000A
:101C50000310CB0C7830CB054B0CF700F70C3F3062
:101C6000F70577084B07CC004A080F394C07F800F6
:101C700078088312DA0032123208831687000000D7
:101C80008312B2153208831687008312871D462EF1
:101C900000004A2E0000321632088316870000002A
:101CA000C03083128B0464308316CC008A118312F7
:101CB0003D228A15033003178D0003308F00031077
:101CC000053083160313B00083120B088316B1008E
:101CD00083128B13831603178C170C14000000005B
:101CE0000313B11F762E83128B1783160318B12EA0
:101CF000831203170C087F3983160313B100831274
:101D000003170D0883160313B200831203170F087D
:101D100083160313B3003108B9008A118312D72543
:101D20008A1583163208831203178D008316031356
:101D30003308831203178F0003130B088316B400B4
:101D400083128B13831603178C170C1400000000EA
:101D50000313B41FAE2E83128B178316B00BB12E54
:101D6000DE2E831203170C0D0E0D7F39831603131D
:101D7000B100831203170D0883160313B2008312F8
:101D800003170F0883160313B3003108B9008A1133
:101D90008312D7258A1583163208831203178D0004
:101DA000831603133308831203178F008D0A031958
:101DB0008F0A031083160313B00B642E83125A0884
:101DC0008316B3000130B4008A118312AB268A1542
:101DD0003A308316B9008A118312D7258A155B0819
:101DE0008316B3000130B4008A118312AB268A1522
:101DF0003A308316B9008A118312D7258A155C08F8
:101E00008316B3000130B4008A118312AB268A1501
:101E10008A150A16D52A463003178D0003308F0025
:101E20008A11031337268A150A308316B9008A11DE
:101E30008312D7258A15663084008313800803191E
:101E40003C2F8316B1010408B0003110831B3114FC
:101E50000008B9008A118312D7258A158316300825
:101E60008400831331188317840A031D3A2F8312C9
:101E7000850A831683121E2F2F308316B9008A110C
:101E80008312D7258A1569308400831380080319CB
:101E9000642F8316B1010408B0003110831B311484
:101EA0000008B9008A118312D7258A1583163008D5
:101EB0008400831331188317840A031D622F831251
:101EC000850A83168312462F2F308316B9008A1194
:101ED0008312D7258A1532308316B9008A118312EE
:101EE000D7258A1530308316B9008A118312D72579
:101EF0008A156C3084008313800803199A2F831687
:101F0000B1010408B0003110831B31140008B9007E
:101F10008A118312D7258A1583163008840083130B
:101F200031188317840A031D982F8312850A83169C
:101F300083127C2F8A150A16D52A4E3003178D007E
:101F400003308F008A11031337268A155630031782
:101F50008D0003308F008A11031337268A158A15E6
:041F60000A16D52A5E
:102000000D3003178D0003308F000A12031337269B
:102010000A168316B1016230B00083120B138B13C2
:102020008B1B0F283216320883168700000083129C
:10203000B21532088316870000008312071232128D
:10204000320883168700000083128711B21132080C
:1020500083168700D030CD000A128312A8210A16F9
:1020600003308316CD000A128312A8210A163216F5
:1020700032088316870000008312B21532088316D7
:10208000870000008312871D43280712321232088E
:1020900083168700000083128711B211320883165D
:1020A0008700D130CD000A128312A8210A16013010
:1020B000F7000A12F2210A1678087F398316C50044
:1020C0004508CA004A08CB000310CB0C7830CB057A
:1020D0004B0CF700F70C3F30F70577084B07CC00A7
:1020E0004A080F394C07F8007808B5000130F700AE
:1020F0000A128312F2210A1678083F398316C500A6
:102100004508CA004A08CB000310CB0C7830CB0539
:102110004B0CF700F70C3F30F70577084B07CC0066
:102120004A080F394C07F8007808B2000130F70070
:102130000A128312F2210A1678081F398316C50085
:102140004508CA004A08CB000310CB0C7830CB05F9
:102150004B0CF700F70C3F30F70577084B07CC0026
:102160004A080F394C07F8007808B300F7010A1243
:102170008312F2210A1678088316C5004508CA00A2
:102180004A08CB000310CB0C7830CB054B0CF70082
:10219000F70C3F30F70577084B07CC004A080F399A
:1021A0004C07F8007808B400831232123208831604
:1021B000870000008312B21532088316870083124D
:1021C000871DE0280000E42800003216320883163C
:1021D00087000000C03083128B0464308316CC006B
:1021E0000A1283123D220A16AB018B1BAB178B130D
:1021F00083163508CC000530CD000A1283125A2010
:102200000A16AB1B8B177808333EF800FA01031847
:10221000FA0A78088316B6007A08B70031088312E4
:10222000D700831630088312D60083163608840040
:10223000831337188317800803194229B90104084A
:10224000B8003910831B39140008BA0083125608ED
:10225000840083135718831783163A088000840A72
:1022600080018312D60A0319D70A8316380884001E
:10227000831339188317840A031D41298312850AA1
:1022800083161B290A30B9000A128312D7250A16B1
:1022900020308316B9000A128312D7250A165D086A
:1022A0008316B3000130B4000A128312AB260A165B
:1022B0002F308316B9000A128312D7250A165E083A
:1022C0008316B3000130B4000A128312AB260A163B
:1022D0002F308316B9000A128312D7250A1632301E
:1022E0008316B9000A128312D7250A1630308316D6
:1022F000B9000A128312D7250A165F088316B300A5
:102300000130B4000A128312AB260A16203083165D
:10231000B9000A128312D7250A166230840083138B
:1023200080080319AE298316B1010408B0003110EA
:10233000831B31140008B9000A128312D7250A162C
:10234000831630088400831331188317840A031D11
:10235000AC298312850A8316831290298A150A16DE
:10236000D52A5C3003178D0003308F000A12031347
:1023700037260A166008F93E0318052A073E082A80
:10238000643003178D0003308F000A1203133726C1
:102390000A16052A6A3003178D0003308F000A12CF
:1023A000031337260A16052A713003178D000330F0
:1023B0008F000A12031337260A16052A78300317EE
:1023C0008D0003308F000A12031337260A16052AE0
:1023D0007E3003178D0003308F000A120313372657
:1023E0000A16052A843003178D0003308F000A1265
:1023F000031337260A16052A8A3003178D00033087
:102400008F000A12031337260A168A150A16D52AD0
:102410000A108A140A118207C029CA29D429DE2980
:10242000E829F229FC29903003178D0003308F0032
:102430000A12031337260A160A308316B9000A1245
:102440008312D7250A166630840083138008031987
:10245000442A8316B1010408B0003110831B3114E3
:102460000008B9000A128312D7250A16831630080D
:102470008400831331188317840A031D422A8312B0
:10248000850A83168312262A3A308316B9000A1267
:102490008312D7250A166930840083138008031934
:1024A0006C2A8316B1010408B0003110831B31146B
:1024B0000008B9000A128312D7250A1683163008BD
:1024C0008400831331188317840A031D6A2A831238
:1024D000850A831683124E2A3A308316B9000A12EF
:1024E0008312D7250A166C308400831380080319E1
:1024F000942A8316B1010408B0003110831B3114F3
:102500000008B9000A128312D7250A16831630086C
:102510008400831331188317840A031D922A8312BF
:10252000850A83168312762A8A150A16D52A730815
:10253000F93E0318E22A073EEE2A993003178D0070
:1025400003308F000A12031337260A16E22A9F303F
:1025500003178D0003308F000A12031337260A1663
:10256000E22AA53003178D0003308F000A120313EF
:1025700037260A16E22AAA3003178D0003308F008F
:102580000A12031337260A16E22AAF3003178D000A
:1025900003308F000A12031337260A16E22AB430DA
:1025A00003178D0003308F000A12031337260A1613
:1025B000E22AB93003178D0003308F000A1203138B
:1025C00037260A16BE3003178D0003308F000A121B
:1025D000031337260A168A150A16D52A0A108A14F2
:1025E0000A1182079D2AA72AB12ABB2AC52ACF2A07
:1025F000D92A8316310884008313321883173308CD
:1026000001398000013031078400831332188317A9
:1026100033080239F7000310F70C77088000023006
:102620003107840083133218831733080439F70005
:10263000F70CF70C3F30F7057708800003303107BF
:10264000840083133218831733080839F700F70C16
:10265000F70CF70C1F30F7057708800004303107BE
:10266000840083133218831733081039F700F70EEC
:102670000F30F70577088000053031078400831399
:102680003218831733082039F700F70EF70C07309C
:10269000F70577088000063031078400831332186D
:1026A000831733084039F700F70EF70CF70C0330A7
:1026B000F70577088000073031078400831332184C
:1026C0008317800131088400831332188317800830
:1026D0000319722B31088400831332188317443096
:1026E0008000792B310884008313321883175F3000
:1026F000800001303107840083133218831780086B
:1027000003198B2B01303107840083133218831790
:1027100053308000932B013031078400831332182B
:1027200083175F3080000230310784008313321832
:10273000831780080319A52B023031078400831307
:102740003218831754308000AD2B023031078400DB
:102750008313321883175F30800003303107840001
:1027600083133218831780080319BF2B03303107F6
:10277000840083133218831751308000C72B033035
:10278000310784008313321883175F3080000430D0
:102790003107840083133218831780080319D92B5B
:1027A00004303107840083133218831751308000BE
:1027B000E12B0430310784008313321883175F3014
:1027C0008000053031078400831332188317800896
:1027D0000319F32B05303107840083133218831754
:1027E00053308000FB2B05303107840083133218EF
:1027F00083175F308000063031078400831332185E
:102800008317800803190D2C0630310784008313C9
:102810003218831753308000152C0630310784009E
:102820008313321883175F30800083120800013051
:1028300074078316B0008312AB018B1BAB178B138D
:1028400074088316CC000330CD000A1283125A207C
:102850000A16AB1B8B17033078078316B1003108BB
:10286000831203178D0083168C130C1483120C082B
:1028700083160313B1008312AB018B1BAB178B13B1
:1028800074088316CC000330CD000A1283125A203C
:102890000A16AB1B8B1703307807013E8316B20074
:1028A0003208831203178D0083168C130C148312C5
:1028B0000C0883160313B2000C30B9000A128312FD
:1028C000D7250A1628308316B9000A128312D72595
:1028D0000A1683163008B3001830B4002030341EB6
:1028E0003030B5003308F700F71F7E2CF709F70AE0
:1028F0007708B3002D30B500B417341478083308C6
:10290000B9006430BA003A08F801390203188B2C78
:102910003908F700972CF7010830BB00B90DF70D07
:102920003A0877020318F700F80DBB0B8E2C7708D6
:10293000B30030307807B6003308B9000A30BA0067
:102940003A08F80139020318A82C3908F700B42C0A
:10295000F7010830BB00B90DF70D3A0877020318EC
:10296000F700F80DBB0BAB2C30307707B8003030D8
:102970007807B7003508F700303036020319C42C49
:10298000B414B41B3415D82C3508B6002030B5006B
:10299000303037020319D02C3414B41BB414D82CA3
:1029A000031D3414031DD82C3608B7002030B600A0
:1029B0003419DF2CB418E62C3418ED2CF42C35081F
:1029C000B9000A128312D7250A1683163608B900F1
:1029D0000A128312D7250A1683163708B9000A127D
:1029E0008312D7250A1683163808B9000A128312F3
:1029F000D7250A1629308316B9000A128312D72563
:102A00000A1620308316B9000A128312D7250A1637
:102A100083163108B3000130B4000A128312AB26CA
:102A20000A163A308316B9000A128312D7250A16FD
:102A300083163208B3000130B4000A128312AB26A9
:102A40000A163A308316B9000A128312D7250A16DD
:102A500030308316B9000A128312D7250A16303097
:102A60008316B9000A128312D7250A16AB018B1BF5
:102A7000AB178B1374088316CC000330CD000A12F9
:102A800083125A200A16AB1B8B1703307807023EBD
:102A90008316B0003008831203178D0083168C1341
:102AA0000C1483120C0883160313B000B201A83073
:102AB000B1003008B3008312F9220A308316B9003E
:102AC0000A128312D7250A1683162808B9000A129B
:102AD0008312D7250A1620308316B9000A128312F2
:102AE000D7250A1683162908B9000A128312D7259A
:102AF0000A1620308316B9000A128312D7250A1647
:102B000083162A08B9000A128312D7250A16203024
:102B10008316B9000A128312D7250A1683162B08CA
:102B2000B9000A128312D7250A1620308316B9007D
:102B30000A128312D7250A1683162C08B9000A1226
:102B40008312D7250A1620308316B9000A12831281
:102B5000D7250A1683162D08B9000A128312D72525
:102B60000A1620308316B9000A128312D7250A16D6
:102B700083162E08B9000A128312D7250A168A1561
:042B80000A16D42A33
:1030000003081F398300FF30B200D701D6013030EA
:10301000D800D901EF01F301F401F50183161F1463
:103020009F141F159F1107309C0083138312AC015E
:10303000AD015330B3004130B4004230B500B601A9
:10304000B7014430B8004F30B9004D30BA00BB0171
:10305000BC015330BD004530BE004730BF00C00149
:10306000C1015430C2004530C3005230C400C50114
:10307000C6015130C7005530C8004130C900CA01EF
:10308000CB015130CC005530CD004930CE00CF01BE
:10309000D0015330D1004530D2005830D300D40194
:1030A000D5015F30E600E700E801E900EA00EB0146
:1030B000EC00ED00EE01F601FB01FC0183160108B6
:1030C000C0390738810083128B16C0308B040A1276
:1030D0008A110D2D0A168A15F401F41B7328740841
:1030E0003B3C031C9C28AB018B1BAB178B13740858
:1030F0008316CC000330CD000A128A1183125A20A5
:103100000A168A15AB1B8B17033078078316B0009D
:103110003008831203178D0083168C130C1483124E
:103120000C08FF3C03199628F50A992803139C28DC
:103130000317F40A03136D28F4010B138B138B1B75
:103140009E28321632088316870000008312B215BB
:1031500032088316870000008312071232123208E9
:1031600083168700000083128711B211320883167C
:103170008700D030CD000A128A118312A8210A16C6
:103180008A1503308316CD000A128A118312A821F2
:103190000A168A1532163208831687000000831239
:1031A000B21532088316870000008312871DD628C7
:1031B000071232123208831687000000831287112B
:1031C000B211320883168700D130CD000A128A115D
:1031D0008312A8210A168A150130F7000A128A11F3
:1031E000F2210A168A1578087F398316C50045082A
:1031F000CA004A08CB000310CB0C7830CB054B0C2F
:10320000F700F70C3F30F70577084B07CC004A086A
:103210000F394C07F80078088312E1000130F700FD
:103220000A128A11F2210A168A1578083F39831684
:10323000C5004508CA004A08CB000310CB0C783003
:10324000CB054B0CF700F70C3F30F70577084B0721
:10325000CC004A080F394C07F80078088312DD00CB
:103260000130F7000A128A11F2210A168A1578082D
:103270001F398316C5004508CA004A08CB00031051
:10328000CB0C7830CB054B0CF700F70C3F30F70533
:1032900077084B07CC004A080F394C07F80078082C
:1032A0008312DE00F7010A128A11F2210A168A152A
:1032B00078088316C5004508CA004A08CB000310E9
:1032C000CB0C7830CB054B0CF700F70C3F30F705F3
:1032D00077084B07CC004A080F394C07F8007808EC
:1032E0008312DF0032123208831687000000831237
:1032F000B2153208831687008312871D7D290000CE
:103300008129000032163208831687000000C03081
:1033100083128B0464308316CC000A128A11831244
:103320003D220A168A150B138B138B1B9429321618
:1033300032088316870000008312B2153208831604
:1033400087000000831207123212320883168700AA
:10335000000083128711B211320883168700D03023
:10336000CD000A128A118312A8210A168A15831623
:10337000CD010A128A118312A8210A168A15321663
:1033800032088316870000008312B21532088316B4
:10339000870000008312871DCB29071232123208E2
:1033A00083168700000083128711B211320883163A
:1033B0008700D130CD000A128A118312A8210A1683
:1033C0008A150130F7000A128A11F2210A168A15AD
:1033D00078087F398316C5004508CA004A08CB0023
:1033E0000310CB0C7830CB054B0CF700F70C3F30BB
:1033F000F70577084B07CC004A080F394C07F8004F
:1034000078088312DC000130F7000A128A11F221D9
:103410000A168A1578087F398316C5004508CA0040
:103420004A08CB000310CB0C7830CB054B0CF700CF
:10343000F70C3F30F70577084B07CC004A080F39E7
:103440004C07F80078088312DB00F7010A128A1192
:10345000F2210A168A1578083F398316C5004508F7
:10346000CA004A08CB000310CB0C7830CB054B0CBC
:10347000F700F70C3F30F70577084B07CC004A08F8
:103480000F394C07F80078088312DA00321232083C
:103490008316870000008312B21532088316870056
:1034A0008312871D512A0000552A00003216320867
:1034B000831687000000C03083128B0464308316AB
:1034C000CC000A128A1183123D220A168A15D908E5
:1034D000031D6E2A0A128B2D0A16D52A590B742A3F
:1034E0008A1100288A15D52A5908023C031D7E2A14
:1034F0000A128A11312F0A168A15D52A5908033C57
:10350000031D882A0A128A11422F0A168A15D52A03
:103510005908043C031D922A0A128A11532F0A16D5
:103520008A15D52A5908063C031D9C2A0A128A11BD
:10353000642F0A168A15D52A5908073C031DA42AA8
:103540000A120B2F0A16D52A5908093C031DAE2A68
:103550000A128A11DA2F0A168A15D52A5908083C48
:10356000031DB62A8A11B1298A15D52A5908053CA6
:10357000031DBE2A0A129D2F0A16D52A59080A3C95
:10358000031DC62A8A11132A8A15D52A59080B3C0D
:10359000031DCE2A8A11972A8A15D52A59080C3C70
:1035A000031DD52A8A11172C8A15AB018B1BAB176B
:1035B0008B137C088316CC000330CD000A128A11CD
:1035C00083125A200A168A15AB1B8B170330780713
:1035D0008316B0003008831203178D0083168C13F6
:1035E0000C1483120C08FF3C0319FC010313AB01FC
:1035F0008B1BAB178B137C088316CC000330CD00DC
:103600000A128A1183125A200A168A15AB1B8B17CD
:10361000033078078316B0003008831203178D003B
:1036200083168C130C1483120C08FF3C0319E82B2F
:103630000313AB018B1BAB178B137C088316CC00D9
:103640000330CD000A128A1183125A200A168A15F5
:10365000AB1B8B1703307807023E8316B00030088F
:10366000831203178D0083168C130C1483120C081D
:1036700083160313B000B201A830B1003008B300C4
:103680008A118312F9228A15E108031D4A2B06309C
:10369000E1004B2BE103A83061078400831300088D
:1036A0005F3C0319E62BAB018B1BAB178B137C081C
:1036B0008316CC000330CD000A128A1183125A20DF
:1036C0000A168A15AB1B8B17033078078316B000D8
:1036D0003008831203178D0083168C130C14831289
:1036E0000C0803135A02031DE62BAB018B1BAB170F
:1036F0008B137C088316CC000330CD000A128A118C
:1037000083125A200A168A15AB1B8B1703307807D1
:10371000013E8316B0003008831203178D00831614
:103720008C130C1483120C0803135B02031DE62B8D
:103730005C08013C0318E62B831689108312891458
:10374000D23003178D0003308F000A128A11031341
:1037500037260A168A151C308316B0008312AB0177
:103760008B1BAB178B13FA308316CC000A128A110D
:1037700083123D220A168A15AB1B8B178316B00BDA
:10378000AE2B891083128910E13003178D000330AE
:103790008F000A128A11031337260A168A15D430AD
:1037A0008316B0008312AB018B1BAB178B13FA305F
:1037B0008316CC000A128A1183123D220A168A153A
:1037C000AB1B8B178316B00BD22B8312FC0A03178B
:1037D0000313AB018B1BAB178B13C8308316CC00C4
:1037E0000A128A1183123D220A168A15AB1B8B1707
:0437F0009D286300AD
:02400E00313F40
:00000001FF
;PIC16F877A
;CRC=6245  CREATED="05-nov-17 00:06"
